:1000000010C02AC029C028C027C026C025C024C0CF
:1000100023C022C021C020C01FC01EC01DC01CC0E4
:100020001BC011241FBECFE5D2E0DEBFCDBF10E064
:10003000A0E6B0E0EAE2F5E002C005900D92A63637
:10004000B107D9F720E0A6E6B0E001C01D92A737BE
:10005000B207E1F7B2D167C2D3CFCF92DF92EF926E
:10006000FF920F931F9383E7C82E80E0D82E90E76E
:10007000E92E90E0F92E06E710E025E730E041E7B1
:1000800050E062E770E084E790E0E3D08BE531D1A7
:1000900066E670E0809171004FD186E690E041D134
:1000A0008AE327D166E670E08091720045D186E64A
:1000B00090E037D18AE31DD166E670E0809174004C
:1000C0003BD186E690E02DD18DE513D180E690E01E
:1000D0001F910F91FF90EF90DF90CF9022C100C051
:1000E00000C000000895D698D49800C000C0000059
:1000F000D69ADE9800C000C00000D49ADC9808951B
:10010000D69ADE9800C000C00000D49800C000C09D
:100110000000D69800C000C00000089598E087FF56
:100120001BC0D698D49800C000C00000D49ADC98B8
:1001300000C000C00000880F915089F7D698D4986D
:1001400000C000C0000089B3D49ADC9886FB8827E1
:1001500080F991E089270895D69ADE98E3CF282F79
:10016000D69898E080E0880FD49800C000C00000C6
:10017000CE998160D49ADC9800C000C000009150F4
:1001800091F7222351F0D69ADE98D49800C000C08F
:100190000000D49ADC98D6980895D698F6CF6AE0F5
:1001A000AFD18295807F892B0895982F82958F708B
:1001B0006AE09DD19F70890F0895CF93DF93D82F68
:1001C000C62F91DF80EDAADF8D2FA8DF8C2FA6DF51
:1001D000DF91CF9195CFCF93C82F85DF80ED9EDF44
:1001E0008C2F9CDF80DF81ED99DF80E0B8DFC82FA6
:1001F00087DF8C2FCF910895CF92EF92FF920F93CC
:100200001F93CF93DF93F82E162FD42FC22F6BDFBF
:1002100080ED84DF80E082DF8F2DC1DF7FDF812FE3
:10022000BEDF7CDF8D2FBBDF79DF8C2FB8DF76DF81
:10023000802FB5DF73DF8E2DB2DF70DF8C2DAFDF47
:100240006DDFDF91CF911F910F91FF90EF90CF90D5
:1002500057CF6F927F928F929F92AF92BF92CF9221
:10026000DF92EF92FF920F931F93CF93DF934C0196
:100270005B01EA01390137DF80ED50DF80E04EDFBE
:1002800032DF81ED4BDF81E06ADF8F778EDFF401B3
:10029000808381E064DF89DFF501808381E05FDFB7
:1002A0008F7383DF888381E05ADF7FDFF3018083F0
:1002B00081E055DF7ADFF801808381E050DF75DF70
:1002C000F701808380E04BDF70DFF6018083DF91F0
:1002D000CF911F910F91FF90EF90DF90CF90BF9043
:1002E000AF909F908F907F906F900ACFB89AC09AEE
:1002F0000895C098E0EDF0E03197F1F798E080FFC5
:100300000EC0C09AE0EDF0E03197F1F7869591507C
:10031000B1F7C09A80ED90E00197F1F70895C09889
:10032000F1CFCF93DF93EC018991811103C0DF916D
:10033000CF910895DEDFF8CFFB01843620F063E62D
:1003400070E0CF01E9C06AE0DBD0805D8083905D22
:1003500091830895CF93DF9300D01F92CDB7DEB77E
:10036000AB01E0E03AE021E02E0F61E070E06C0FBD
:100370007D1F6E0F711DFB01632FC2D0905D9083B6
:10038000E22F8111F0CF322FA22FA31BA40FB52F84
:10039000B11D311107C01C920F900F900F90DF918B
:1003A000CF910895315081E090E08C0F9D1F830F15
:1003B000911DFC0180818C93E7CF98DF8BB3876020
:1003C0008BBB4BDEC8992BC043E7C42E40E0D42E34
:1003D00050E7E52E50E0F52E06E710E025E730E087
:1003E00041E750E062E770E084E790E032DF80911F
:1003F000710091E0980F983108F06FC090937100F0
:10040000C0907300E090700000917600209175001C
:10041000409171006091720080917400EDDEC99985
:100420002AC023E7C22E20E0D22E30E7E32E30E0B0
:10043000F32E06E710E025E730E041E750E062E701
:1004400070E084E790E005DF809172008F5F8C336D
:1004500008F047C080937200C0907300E090700075
:1004600000917600209175004091710060917200BA
:1004700080917400C1DECA9929C083E7C82E80E04C
:10048000D82E90E7E92E90E0F92E06E710E025E758
:1004900030E041E750E062E770E084E790E0D9DEC9
:1004A000809174008F5F8C33F8F480937400C09057
:1004B0007300E090700000917600209175004091EB
:1004C0007100609172008091740096DE83E294EF77
:1004D0000197F1F700C0000074CF8751809371003D
:1004E0008FCF10927200B8CF10927400E0CF00242A
:1004F00080FD060E660F11F08695D1F7802D0895C8
:10050000991B79E004C0991F961708F0961B881F65
:100510007A95C9F780950895FB01DC0101900D9251
:0A0520000020E1F70895F894FFCFE2
:06052A000D0A0039390042
:00000001FF
