:1000000010C02AC029C028C027C026C025C024C0CF
:1000100023C022C021C020C01FC01EC01DC01CC0E4
:100020001BC011241FBECFE5D2E0DEBFCDBF10E064
:10003000A0E6B0E0E0ECF3E002C005900D92A63639
:10004000B107D9F720E0A6E6B0E001C01D92A737BE
:10005000B207E1F762D1B2C1D3CF00C000C0000047
:100060000895D698D49800C000C00000D69ADE98B3
:1000700000C000C00000D49ADC980895D69ADE989B
:1000800000C000C00000D49800C000C00000D69896
:1000900000C000C00000089598E087FF1BC0D698FC
:1000A000D49800C000C00000D49ADC9800C000C002
:1000B0000000880F915089F7D698D49800C000C0EE
:1000C000000089B3D49ADC9886FB882780F991E0F8
:1000D00089270895D69ADE98E3CF282FD69898E0FE
:1000E00080E0880FD49800C000C00000CE998160E5
:1000F000D49ADC9800C000C00000915091F72223F0
:1001000051F0D69ADE98D49800C000C00000D49A6E
:10011000DC98D6980895D698F6CF6AE043D18295B8
:10012000807F892B0895982F82958F706AE031D156
:100130009F70890F0895CF93DF93D82FC62F91DF3B
:1001400080EDAADF8D2FA8DF8C2FA6DFDF91CF9166
:1001500095CFCF93C82F85DF80ED9EDF8C2F9CDF5E
:1001600080DF81ED99DF80E0B8DFC82F87DF8C2F3B
:10017000CF910895CF92EF92FF920F931F93CF9359
:10018000DF93F82E162FD42FC22F6BDF80ED84DF84
:1001900080E082DF8F2DC1DF7FDF812FBEDF7CDF3C
:1001A0008D2FBBDF79DF8C2FB8DF76DF802FB5DFB7
:1001B00073DF8E2DB2DF70DF8C2DAFDF6DDFDF914F
:1001C000CF911F910F91FF90EF90CF9057CF6F92EB
:1001D0007F928F929F92AF92BF92CF92DF92EF92D7
:1001E000FF920F931F93CF93DF934C015B01EA01C2
:1001F000390137DF80ED50DF80E04EDF32DF81ED07
:100200004BDF81E06ADF8F778EDFF401808381E04E
:1002100064DF89DFF501808381E05FDF8F7383DF37
:10022000888381E05ADF7FDFF301808381E055DF3F
:100230007ADFF801808381E050DF75DFF70180838A
:1002400080E04BDF70DFF6018083DF91CF911F915B
:100250000F91FF90EF90DF90CF90BF90AF909F9065
:100260008F907F906F900ACFB89AC09A0895C098E7
:10027000E0EDF0E03197F1F798E080FF0EC0C09A12
:10028000E0EDF0E03197F1F786959150B1F7C09A23
:1002900080ED90E00197F1F70895C098F1CFCF93EA
:1002A000DF93EC018991811103C0DF91CF91089513
:1002B000DEDFF8CFCF93DF9300D01F92CDB7DEB74C
:1002C000AB01E0E03AE021E02E0F61E070E06C0F5E
:1002D0007D1F6E0F711DFB01632F64D0905D9083B5
:1002E000E22F8111F0CF322FA22FA31BA40FB52F25
:1002F000B11D311107C01C920F900F900F90DF912C
:10030000CF910895315081E090E08C0F9D1F830FB5
:10031000911DFC0180818C93E7CFA6DF83E7C82E77
:1003200080E0D82E90E7E92E90E0F92E06E710E065
:1003300025E730E041E750E062E770E084E790E0D5
:1003400046DF66E670E080917100B4DF86E690E0FB
:10035000A6DF80E690E0A3DF66E670E080917200A1
:10036000A9DF80E690E09BDF66E670E08091740094
:10037000A1DF86E690E093DF82E690E090DF2FE356
:100380008DE093E0215080409040E1F700C00000F4
:10039000C5CF002480FD060E660F11F08695D1F7BB
:1003A000802D0895991B79E004C0991F961708F0D5
:1003B000961B881F7A95C9F780950895F894FFCF0A
:0603C0003A000D0A0000E6
:00000001FF
